S01200006B6164616932352D32362E737265631C
S11300000C9437000C94E5020C945F000C945F0090
S11300100C945F000C945F000C945F000C945F00E0
S11300200C945F000C945F000C945F000C945F00D0
S11300300C945F000C945F000C945F000C945F00C0
S11300400C945F000C945F000C945F000C945F00B0
S11300500C945F000C945F000C945F000C945F00A0
S11300600C945F000C945F00D60109027003112404
S11300701FBECFEFD8E0DEBFCDBF11E0A0E0B1E0FE
S1130080E4EBFBE002C005900D92AC30B107D9F768
S113009021E0ACE0B1E001C01D92A73AB207E1F75C
S11300A010E0C7E3D0E004C02197FE010E94D2050E
S11300B0C433D107C9F70E940E020C94D8050C94DE
S11300C00000FC011082219AE0E8F0E0808183685E
S11300D080838CE08093810084E690E09093890093
S11300E0809388000895CF93DF93CDB7DEB72C9724
S11300F00FB6F894DEBF0FBECDBF9C019CE0E0E0DC
S1130100F1E0DE01119601900D929A95E1F76630C7
S113011008F065E0F9016083E62FF0E0EE0FFF1FC1
S1130120EC0FFD1F81819281909389008093880058
S11301302C960FB6F894DEBF0FBECDBFDF91CF91E2
S11301400895FC018FEF85838483878386830895D4
S11301508F929F92AF92BF92CF92DF92EF92FF92D3
S11301600F931F93CF93DF9300D000D01F92CDB78E
S1130170DEB78C0114BC82E085BD10926E0083B1A1
S1130180886085B9239A2FEF80E792E02150804060
S11301909040E1F700C0000083B1877F85B9EFE7A5
S11301A0FDEE20E0E150F0402040E1F700C0000007
S11301B083B1886085B923981B99FECF1B9BFECF22
S11301C01B99FECF40E050E0F8941B9BFECFE6B5B0
S11301D0F0E01B99FECF86B590E078949A01552300
S11301E014F4295F3F4F3595279535952795359517
S11301F02795A1E0B0E0AC0FBD1FA20FB31F6C9117
S1130200660F8E179F0708F493958E1B9F0B8236FB
S1130210910540F4E1E0F0E0EC0FFD1FE20FF31F65
S1130220608308C0E1E0F0E0EC0FFD1FE20FF31F74
S1130230616060834F5F5F4F4832510529F61B9B15
S1130240FECFC980F801C682FA80F782DB80D482AF
S1130250EC80E5826E2D6F7770E080E090E00E9484
S1130260460520E030E040E251E40E94D2044B0114
S11302705C016D2D70E080E090E00E9444059B01DC
S1130280AC01C501B4010E946604EE2034F0F8010B
S1130290608371838283938308C0DC01CB01B058EF
S11302A0F80180839183A283B3832F2D30E02C0D3A
S11302B0311D2D0D311D2E0D311D4D8150E081E07C
S11302C090E02417350711F480E090E00F900F9030
S11302D00F900F900F90DF91CF911F910F91FF908E
S11302E0EF90DF90CF90BF90AF909F908F90089544
S11302F0FC0184810895CF93DF93EC018CE091E0BD
S11303000E945102892BA9F586E191E00E94A80080
S1130310892B69F586E191E00E947801803218F01A
S113032085E088832BC086E191E00E9478018D31BD
S113033018F084E0888322C086E191E00E9478016D
S11303408A3118F083E0888319C086E191E00E9425
S11303507801873118F082E0888310C086E191E04B
S11303600E947801863150F081E0888307C01882AA
S113037005C08CE091E00E9451028883688185E188
S113038091E00E947300DF91CF910895FC01808178
S1130390089586E191E00E94A800892B29F486E162
S11303A091E00E947801089580E0089586E191E04B
S11303B00E94A10085E191E00E9461008CE091E03F
S11303C00E943F020895CF93DF9300D000D0CDB7B1
S11303D0DEB78DEC689F812D1124869586958695D0
S11303E0382F330F932F990F990F930F691B69833C
S11303F08A834B832C83BE016F5F7F4F8EE191E034
S11304000E9417040F900F900F900F90DF91CF91DF
S113041008958EE191E00E9479030895CF93DF93CC
S113042000D000D0CDB7DEB7CE0101960E941C03E8
S1130430CE0103960E947B01CE0101960E941F0308
S1130440CE0103960E94C901182FCE0103960E9483
S1130450C601082FCE0101960E946D03282F402F5C
S1130460612FCE0104960E94E3012FEF81EE94E008
S1130470215080409040E1F700C00000D9CFCF93D5
S1130480DF93EC010E94C90289E090E09D838C8394
S11304901F821E821B821A8281E08887DF91CF919E
S11304A00895CF93DF93EC010E94D5022A813B810A
S11304B0820F931F9B838A832C813D8128173907E0
S11304C05CF48885813029F48E819F819B838A83A3
S11304D010C03B832A830DC04E815F81841795072A
S11304E044F48885813019F43B832A8302C05B83FA
S11304F04A838A819B81DF91CF9108954C9A5498C5
S113050021E030E0FC0131832083089529B120717A
S11305103FEF89EF90E0315080409040E1F700C018
S1130520000089B1422F50E0807190E048175907CC
S113053031F481E090E02031E9F080E0089580E139
S113054028273FEF89EF90E0315080409040E1F759
S113055000C0000089B1422F50E0807190E048173C
S1130560590731F481E090E0203121F080E00895D2
S11305708FEF9FEF08954C9BFECF2FEF89EF90E014
S1130580215080409040E1F700C000004C9BF3CF25
S113059008958BB18C608BB98AB1837F8AB982E06C
S11305A080936900E89A789408952091A20130918B
S11305B0A301FC0131832083F8941092A3011092CB
S11305C0A20178948081918108951F920F920FB6B1
S11305D00F9211248F939F9381E090E09093A30155
S11305E08093A2014B9906C08FEF9FEF9093A301D4
S11305F08093A2019F918F910F900FBE0F901F9037
S11306001895229AE0E8F0E08081836280838CE090
S1130610809381008FE590E090938B0080938A0013
S11306200895633808F062E870E0625E7F4F70936B
S11306308B0060938A000895FC0110820895CF9383
S1130640DF93EC0185EA91E00E948602892B69F42C
S113065085EA91E00E94BB0288818F5F843011F0AB
S1130660888303C0188280E011C08881813029F416
S11306709981973519F59FEF13C0823039F4998128
S1130680953121F19D36E1F49FEF0CC0833039F4AC
S113069089818823E9F08D36A9F49FEF14C091E095
S11306A0882321F08981980F998302C081E489838A
S11306B0698184EA91E00E9411030CC091E0F0CFBB
S11306C091E0F0CF91E0890F8983F2CF91E0E8CFF8
S11306D091E0E8CFDF91CF910895FC0180810895E6
S11306E085EA91E00E947E0284EA91E00E9401037F
S11306F00895FC0184B1816184B98FE3808386E02D
S113070081838BE582838FE4838386E684838DE60D
S113071085838DE7868387E087838FE780878FE6ED
S113072081871286089583B1816085B98FE891E04D
S11307300197F1F700C0000083B1806185B98FE8AB
S113074091E00197F1F700C0000083B18F7E85B975
S11307508FE891E00197F1F700C00000089583B19C
S11307608F7E85B98FE891E00197F1F700C0000012
S113077083B1816085B98FE891E00197F1F700C0FA
S1130780000083B1806185B98FE891E00197F1F7AA
S113079000C00000089528E030E083B18E7F85B961
S11307A08FE891E00197F1F700C0000060FD04C0FC
S11307B083B18F7E85B903C083B1806185B98FE829
S11307C091E00197F1F700C0000083B1816085B921
S11307D08FE891E00197F1F700C000006695215081
S11307E03109D9F683B18E7F85B98FE891E00197FD
S11307F0F1F700C0000083B1816085B98FE891E012
S11308000197F1F700C0000083B18F7E85B98FE8AE
S113081091E00197F1F700C0000083B18E7F85B9A4
S11308208FE891E00197F1F700C000000895EF927E
S1130830FF920F931F93CF93DF93EC01062F172F93
S113084084B1816184B9CE010E94930364E4CE0132
S11308500E94CB03CE010E94AF03E02EF12E10ECD8
S1130860CE010E949303612FCE010E94CB03F701B6
S113087081917F0188235CF4FE01E80FF11DE058AB
S1130880F10960816068CE010E94CB0307C0FE01BC
S1130890E80FF11D6081CE010E94CB03CE010E94BE
S11308A0AF031F5F143CE1F6CE010E9493036FE88F
S11308B0CE010E94CB03CE010E94AF03DF91CF9102
S11308C01F910F91FF90EF9008955058BB27AA27CE
S11308D00E947D040C9498050E948A0538F00E94B9
S11308E0910520F039F49F3F19F426F40C94870500
S11308F00EF4E095E7FB0C948105E92F0E94A9050D
S113090058F3BA17620773078407950720F079F440
S1130910A6F50C94CB050EF4E0950B2EBA2FA02D62
S11309200B01B90190010C01CA01A0011124FF2798
S1130930591B99F0593F50F4503E68F11A16F04093
S1130940A22F232F342F4427585FF3CF4695379592
S11309502795A795F0405395C9F77EF41F16BA0B57
S1130960620B730B840BBAF09150A1F0FF0FBB1F05
S1130970661F771F881FC2F70EC0BA0F621F731F4E
S1130980841F48F4879577956795B795F7959E3FAB
S113099008F0B0CF9395880F08F09927EE0F97953C
S11309A0879508950E94E6040C9498050E94910589
S11309B058F00E948A0540F029F45F3F29F00C9416
S11309C0810551110C94CC050C9487050E94A9054E
S11309D068F39923B1F3552391F3951B550BBB276A
S11309E0AA2762177307840738F09F5F5F4F220FAF
S11309F0331F441FAA1FA9F335D00E2E3AF0E0E8A6
S1130A0032D091505040E695001CCAF72BD0FE2FEF
S1130A1029D0660F771F881FBB1F26173707480783
S1130A20AB07B0E809F0BB0B802DBF01FF2793583B
S1130A305F4F3AF09E3F510578F00C9481050C9479
S1130A40CC055F3FE4F3983ED4F38695779567959C
S1130A50B795F7959F5FC9F7880F911D9695879570
S1130A6097F90895E1E0660F771F881FBB1F62178F
S1130A7073078407BA0720F0621B730B840BBA0B4D
S1130A80EE1F88F7E0950895E89409C097FB3EF4BB
S1130A9090958095709561957F4F8F4F9F4F9923C7
S1130AA0A9F0F92F96E9BB279395F6958795779545
S1130AB06795B795F111F8CFFAF4BB0F11F460FF05
S1130AC01BC06F5F7F4F8F4F9F4F16C0882311F05D
S1130AD096E911C0772321F09EE8872F762F05C071
S1130AE0662371F096E8862F70E060E02AF09A950C
S1130AF0660F771F881FDAF7880F9695879597F901
S1130B00089597F99F6780E870E060E008959FEF8B
S1130B1080EC089500240A94161617061806090690
S1130B20089500240A94121613061406050608955F
S1130B30092E0394000C11F4882352F0BB0F40F4E7
S1130B40BF2B11F460FF04C06F5F7F4F8F4F9F4F27
S1130B50089557FD9058440F551F59F05F3F71F0A9
S1130B604795880F97FB991F61F09F3F79F0879510
S1130B700895121613061406551FF2CF4695F1DF99
S1130B8008C0161617061806991FF1CF8695710529
S1130B90610508940895E894BB2766277727CB015D
S1130BA097F90895EE0FFF1F0590F491E02D099435
S1070BB0F894FFCFE3
S10F0BB400006400B40004015401A4011A
S9030000FC
