:100000000C9434000C949B000C9451000C945100FF
:100010000C9451000C9451000C9451000C9451001C
:100020000C9451000C9451000C9451000C9451000C
:100030000C9451000C9451000C9451000C945100FC
:100040000C9451000C9451000C9451000C945100EC
:100050000C9451000C9451000C9451000C945100DC
:100060000C9451000C94510011241FBECFEFD8E026
:10007000DEBFCDBF11E0A0E0B1E0EAE4F3E002C0F2
:1000800005900D92A030B107D9F721E0A0E0B1E0D2
:1000900001C01D92A230B207E1F70E9453000C94F8
:1000A000A3010C940000CF93DF93CDB7DEB7C858FF
:1000B000D1090FB6F894DEBF0FBECDBF8AE08983A9
:1000C0008A838B838C83CE0105960E94B700689447
:1000D000DD24D1F814E00F2EF1E8EF2EF02D0F2ED5
:1000E000F7E0FF2EF02D0AE0D9821A831C83BE01AF
:1000F0006F5F7F4FCE0105960E9455012FEF83ED74
:1001000090E3215080409040E1F700C00000E98278
:10011000FA820C83BE016F5F7F4FCE0105960E946D
:1001200055012FEF83ED90E3215080409040E1F79F
:1001300000C00000D9CF1F920F920FB60F9211246A
:100140008F939F9381E090E0909301018093000151
:100150004B9906C08FEF9FEF9093010180930001B0
:100160009F918F910F900FBE0F901F901895FC01DB
:1001700084B1816184B98FE3808386E081838BE5DC
:1001800082838FE4838386E684838DE685838DE78F
:10019000868387E087838FE780878FE68187128653
:1001A000089583B1816085B98FE891E00197F1F7F7
:1001B00000C0000083B1806185B98FE891E00197AC
:1001C000F1F700C0000083B18F7E85B98FE891E020
:1001D0000197F1F700C00000089583B18F7E85B9C3
:1001E0008FE891E00197F1F700C0000083B18160D2
:1001F00085B98FE891E00197F1F700C0000083B165
:10020000806185B98FE891E00197F1F700C00000A7
:10021000089528E030E083B18E7F85B98FE891E0C2
:100220000197F1F700C0000060FD04C083B18F7E2C
:1002300085B903C083B1806185B98FE891E00197EA
:10024000F1F700C0000083B1816085B98FE891E0CB
:100250000197F1F700C00000669521503109D9F6E9
:1002600083B18E7F85B98FE891E00197F1F700C0E7
:10027000000083B1816085B98FE891E00197F1F7C3
:1002800000C0000083B18F7E85B98FE891E00197AF
:10029000F1F700C0000083B18E7F85B98FE891E04F
:1002A0000197F1F700C000000895EF92FF920F93BD
:1002B0001F93CF93DF93EC01062F172F84B1816139
:1002C00084B9CE010E94D10064E4CE010E940901EC
:1002D000CE010E94ED00E02EF12E10ECCE010E9426
:1002E000D100612FCE010E940901F70181917F01A8
:1002F00088235CF4FE01E80FF11DE058F1096081EC
:100300006068CE010E94090107C0FE01E80FF11DDF
:100310006081CE010E940901CE010E94ED001F5FA5
:10032000143CE1F6CE010E94D1006FE8CE010E949C
:100330000901CE010E94ED00DF91CF911F910F9135
:0A034000FF90EF900895F894FFCFAE
:00000001FF
