:100000000C9436000C9420020C945E000C945E005C
:100010000C945E000C945E000C945E000C945E00E8
:100020000C945E000C945E000C945E000C945E00D8
:100030000C945E000C945E000C945E000C945E00C8
:100040000C945E000C945E000C945E000C945E00B8
:100050000C945E000C945E000C945E000C945E00A8
:100060000C945E000C945E00BC01C50111241FBEFF
:10007000CFEFD8E0DEBFCDBF11E0A0E0B1E0EAE312
:10008000F9E002C005900D92AC30B107D9F721E03C
:10009000ACE0B1E001C01D92AB39B207E1F710E06E
:1000A000C6E3D0E004C02197FE010E949504C4334A
:1000B000D107C9F70E94CA010C949B040C9400005C
:1000C000FC011082219AE0E8F0E08081836880835F
:1000D0008CE08093810084E690E090938900809387
:1000E00088000895CF93DF93CDB7DEB72C970FB676
:1000F000F894DEBF0FBECDBF9C019CE0E0E0F1E0D4
:10010000DE01119601900D929A95E1F7663008F0A4
:1001100065E0F9016083E62FF0E0EE0FFF1FEC0FC2
:10012000FD1F8181928190938900809388002C9695
:100130000FB6F894DEBF0FBECDBFDF91CF9108950B
:10014000FC018FEF858384838783868308958F9254
:100150009F92AF92BF92CF92DF92EF92FF920F9356
:100160001F93CF93DF9300D000D01F92CDB7DEB79F
:100170008C0114BC82E085BD10926E0083B1886052
:1001800085B9239A2FEF80E792E02150804090407C
:10019000E1F700C0000083B1877F85B9EFE7FDEE8E
:1001A00020E0E150F0402040E1F700C0000083B1C2
:1001B000886085B923981B99FECF1B9BFECF1B99A6
:1001C000FECF40E050E0F8941B9BFECFE6B5F0E098
:1001D0001B99FECF86B590E078949A01552314F4CC
:1001E000295F3F4F35952795359527953595279567
:1001F000A1E0B0E0AC0FBD1FA20FB31F6C91660F62
:100200008E179F0708F493958E1B9F0B82369105DE
:1002100040F4E1E0F0E0EC0FFD1FE20FF31F60831C
:1002200008C0E1E0F0E0EC0FFD1FE20FF31F61609A
:1002300060834F5F5F4F4832510529F61B9BFECF0D
:10024000C980F801C682FA80F782DB80D482EC8014
:10025000E5826E2D6F7770E080E090E00E940904E7
:1002600020E030E040E251E40E9495034B015C0144
:100270006D2D70E080E090E00E9407049B01AC01CE
:10028000C501B4010E942903EE2034F0F801608317
:1002900071838283938308C0DC01CB01B058F801DD
:1002A00080839183A283B3832F2D30E02C0D311DE9
:1002B0002D0D311D2E0D311D4D8150E081E090E05E
:1002C0002417350711F480E090E00F900F900F9005
:1002D0000F900F90DF91CF911F910F91FF90EF90B2
:1002E000DF90CF90BF90AF909F908F900895FC01CA
:1002F00084810895CF93DF93EC018DE091E00E941B
:10030000A700892B69F58DE091E00E94770180328A
:1003100018F085E0888325C08DE091E00E94770188
:100320008D3118F084E088831CC08DE091E00E943C
:1003300077018A3118F083E0888313C08DE091E063
:100340000E947701873118F082E088830AC08DE02F
:1003500091E00E947701863120F081E0888301C01E
:10036000188268818CE091E00E947200DF91CF9149
:100370000895FC01808108958DE091E00E94A00025
:100380008CE091E00E946000089585E191E00E9478
:100390003C020895CF93DF93CDB7DEB7C958D1099A
:1003A0000FB6F894DEBF0FBECDBFCE0101960E94FE
:1003B0003C0200E010E06894AA24A2F8BB24B394A5
:1003C000C12CFF24F394D12CE12CCE0187579F4FF1
:1003D0000E947A01012B41F0CB57DF4FF882C558BC
:1003E000D0400D2D1E2D07C0CB57DF4FA882C5581A
:1003F000D0400B2D1C2DCA57DF4FF882C658D04075
:10040000C957DF4FF882C758D040CE0187579F4F5A
:100410000E94B901C857DF4F8883C858D040BE0139
:100420006B577F4FCE0101960E94DA022FEF83EDCA
:1004300090E3215080409040E1F700C00000C5CF1C
:100440001F920F920FB60F9211248F939F9381E00A
:1004500090E090939A01809399014B9906C08FEF99
:100460009FEF90939A01809399019F918F910F90A4
:100470000FBE0F901F901895FC0184B1816184B963
:100480008FE3808386E081838BE582838FE483839F
:1004900086E684838DE685838DE7868387E0878380
:1004A0008FE780878FE681871286089583B1816008
:1004B00085B98FE891E00197F1F700C0000083B1A2
:1004C000806185B98FE891E00197F1F700C00000E5
:1004D00083B18F7E85B98FE891E00197F1F700C075
:1004E0000000089583B18F7E85B98FE891E0019770
:1004F000F1F700C0000083B1816085B98FE891E019
:100500000197F1F700C0000083B1806185B98FE8E1
:1005100091E00197F1F700C00000089528E030E075
:1005200083B18E7F85B98FE891E00197F1F700C024
:10053000000060FD04C083B18F7E85B903C083B124
:10054000806185B98FE891E00197F1F700C0000064
:1005500083B1816085B98FE891E00197F1F700C020
:100560000000669521503109D9F683B18E7F85B997
:100570008FE891E00197F1F700C0000083B181603E
:1005800085B98FE891E00197F1F700C0000083B1D1
:100590008F7E85B98FE891E00197F1F700C00000E8
:1005A00083B18E7F85B98FE891E00197F1F700C0A4
:1005B00000000895EF92FF920F931F93CF93DF9364
:1005C000EC01062F172F84B1816184B9CE010E94FE
:1005D000560264E4CE010E948E02CE010E94720295
:1005E000E02EF12E10ECCE010E945602612FCE01BA
:1005F0000E948E02F70181917F0188235CF4FE0145
:10060000E80FF11DE058F10960816068CE010E9499
:100610008E0207C0FE01E80FF11D6081CE010E942D
:100620008E02CE010E9472021F5F143CE1F6CE01E1
:100630000E9456026FE8CE010E948E02CE010E94F7
:100640007202DF91CF911F910F91FF90EF9008956B
:100650005058BB27AA270E9440030C945B040E94B9
:100660004D0438F00E94540420F039F49F3F19F4EF
:1006700026F40C944A040EF4E095E7FB0C94440431
:10068000E92F0E946C0458F3BA17620773078407B6
:10069000950720F079F4A6F50C948E040EF4E095FD
:1006A0000B2EBA2FA02D0B01B90190010C01CA012C
:1006B000A0011124FF27591B99F0593F50F4503ED7
:1006C00068F11A16F040A22F232F342F4427585FC9
:1006D000F3CF469537952795A795F0405395C9F7E1
:1006E0007EF41F16BA0B620B730B840BBAF0915099
:1006F000A1F0FF0FBB1F661F771F881FC2F70EC038
:10070000BA0F621F731F841F48F48795779567950A
:10071000B795F7959E3F08F0B0CF9395880F08F0F6
:100720009927EE0F9795879508950E94A9030C9439
:100730005B040E94540458F00E944D0440F029F4D8
:100740005F3F29F00C94440451110C948F040C94D5
:100750004A040E946C0468F39923B1F3552391F382
:10076000951B550BBB27AA2762177307840738F020
:100770009F5F5F4F220F331F441FAA1FA9F335D07D
:100780000E2E3AF0E0E832D091505040E695001C31
:10079000CAF72BD0FE2F29D0660F771F881FBB1FEB
:1007A000261737074807AB07B0E809F0BB0B802DC9
:1007B000BF01FF2793585F4F3AF09E3F510578F0F5
:1007C0000C9444040C948F045F3FE4F3983ED4F3FC
:1007D000869577956795B795F7959F5FC9F7880FC9
:1007E000911D9695879597F90895E1E0660F771F1B
:1007F000881FBB1F621773078407BA0720F0621BAC
:10080000730B840BBA0BEE1F88F7E0950895E894FC
:1008100009C097FB3EF490958095709561957F4F48
:100820008F4F9F4F9923A9F0F92F96E9BB279395F6
:10083000F695879577956795B795F111F8CFFAF406
:10084000BB0F11F460FF1BC06F5F7F4F8F4F9F4F37
:1008500016C0882311F096E911C0772321F09EE895
:10086000872F762F05C0662371F096E8862F70E0FB
:1008700060E02AF09A95660F771F881FDAF7880FD5
:100880009695879597F9089597F99F6780E870E0A6
:1008900060E008959FEF80EC089500240A941616F6
:1008A000170618060906089500240A94121613065E
:1008B000140605060895092E0394000C11F48823EC
:1008C00052F0BB0F40F4BF2B11F460FF04C06F5F08
:1008D0007F4F8F4F9F4F089557FD9058440F551FDE
:1008E00059F05F3F71F04795880F97FB991F61F0B2
:1008F0009F3F79F087950895121613061406551F29
:10090000F2CF4695F1DF08C0161617061806991F94
:10091000F1CF86957105610508940895E894BB2789
:1009200066277727CB0197F90895EE0FFF1F0590F3
:0A093000F491E02D0994F894FFCF34
:0C093A0000006400B40004015401A4019A
:00000001FF
