S01200006B6164616932352D32362E737265631C
S11300000C9437000C9409010C945F000C945F006D
S11300100C945F000C945F000C945F000C945F00E0
S11300200C945F000C945F000C945F000C945F00D0
S11300300C945F000C945F000C945F000C945F00C0
S11300400C945F000C945F000C945F000C945F00B0
S11300500C945F000C945F000C945F000C945F00A0
S11300600C945F000C945F007A0083008E011124CD
S11300701FBECFEFD8E0DEBFCDBF11E0A0E0B1E0FE
S1130080E6E1F5E002C005900D92A030B107D9F782
S113009021E0A0E0B1E001C01D92A239B207E1F76E
S11300A010E0C7E3D0E004C02197FE010E94830260
S11300B0C433D107C9F70E9488000C9489020C94B8
S11300C00000FC011082219AE0E8F0E0808183685E
S11300D080838CE08093810084E690E09093890093
S11300E0809388000895FC018FEF85838483878340
S11300F08683089581E091E00E94730080E091E09E
S11301000E946100089589E091E00E94970108959A
S1130110CF93DF93CDB7DEB7CA58D1090FB6F894A1
S1130120DEBF0FBECDBF8AE089838A838B838C8335
S1130130CE0105960E949701CE0187579F4F0E94DA
S113014040017894CE0187579F4F0E944301CE010E
S113015087579F4F0E948B018C83BE016F5F7F4F37
S1130160CE0105960E9435022FEF83ED90E32150D6
S113017080409040E1F700C00000E4CF4C9A5498CE
S113018021E030E0FC0131832083089529B12071FE
S11301903FEF89EF90E0315080409040E1F700C09C
S11301A0000089B1422F50E0807190E04817590750
S11301B031F481E090E02031E9F080E0089580E1BD
S11301C028273FEF89EF90E0315080409040E1F7DD
S11301D000C0000089B1422F50E0807190E04817C0
S11301E0590731F481E090E0203121F080E0089556
S11301F08FEF9FEF08954C9BFECF2FEF89EF90E098
S1130200215080409040E1F700C000004C9BF3CFA8
S113021008951F920F920FB60F9211248F939F93FC
S113022081E090E090938E0180938D014B9906C0FC
S11302308FEF9FEF90938E0180938D019F918F910B
S11302400F900FBE0F901F901895229AE0E8F0E0EF
S11302508081836280838CE0809381008FE590E0CD
S113026090938B0080938A000895633808F062E8C5
S113027070E0625E7F4F70938B0060938A000895F4
S1130280FC0110820895CF93DF93EC0180E991E0A3
S11302900E94C600892B61F480E991E00E94FB0072
S11302A088818F5F843011F0888302C0188203C074
S11302B08881811104C08AE5898380E016C0813079
S11302C049F48981883710F09FEF01C091E0890FCC
S11302D0898319C0823049F48981863910F09FEFEF
S11302E001C091E0890F89830EC0833061F4898154
S11302F0882321F0843B20F09FEF03C091E001C0EC
S113030091E0890F898369818FE891E00E9435012A
S1130310DF91CF910895FC018081089580E991E0F7
S11303200E94BE008FE891E00E9425010895FC011F
S113033084B1816184B98FE3808386E081838BE516
S113034082838FE4838386E684838DE685838DE7C9
S1130350868387E087838FE780878FE6818712868D
S1130360089583B1816085B98FE891E00197F1F731
S113037000C0000083B1806185B98FE891E00197E6
S1130380F1F700C0000083B18F7E85B98FE891E05A
S11303900197F1F700C00000089583B18F7E85B9FD
S11303A08FE891E00197F1F700C0000083B181600C
S11303B085B98FE891E00197F1F700C0000083B19F
S11303C0806185B98FE891E00197F1F700C00000E2
S11303D0089528E030E083B18E7F85B98FE891E0FD
S11303E00197F1F700C0000060FD04C083B18F7E67
S11303F085B903C083B1806185B98FE891E0019725
S1130400F1F700C0000083B1816085B98FE891E005
S11304100197F1F700C00000669521503109D9F623
S113042083B18E7F85B98FE891E00197F1F700C021
S1130430000083B1816085B98FE891E00197F1F7FD
S113044000C0000083B18F7E85B98FE891E00197E9
S1130450F1F700C0000083B18E7F85B98FE891E089
S11304600197F1F700C000000895EF92FF920F93F7
S11304701F93CF93DF93EC01062F172F84B1816173
S113048084B9CE010E94B10164E4CE010E94E90165
S1130490CE010E94CD01E02EF12E10ECCE010E947F
S11304A0B101612FCE010E94E901F70181917F0121
S11304B088235CF4FE01E80FF11DE058F109608126
S11304C06068CE010E94E90107C0FE01E80FF11D3A
S11304D06081CE010E94E901CE010E94CD011F5F1F
S11304E0143CE1F6CE010E94B1016FE8CE010E94F6
S11304F0E901CE010E94CD01DF91CF911F910F91AF
S1130500FF90EF900895EE0FFF1F0590F491E02DFA
S10905100994F894FFCFEA
S9030000FC
