S01200006B6164616932352D32362E737265631C
S11300000C9437000C947C020C945F000C945F00F9
S11300100C945F000C945F000C945F000C945F00E0
S11300200C945F000C945F000C945F000C945F00D0
S11300300C945F000C945F000C945F000C945F00C0
S11300400C945F000C945F000C945F000C945F00B0
S11300500C945F000C945F000C945F000C945F00A0
S11300600C945F000C945F00B301BF01EC021124F7
S11300701FBECFEFD8E0DEBFCDBF11E0A0E0B1E0FE
S1130080E6E0F9E002C005900D92AC30B107D9F773
S113009021E0ACE0B1E001C01D92A73AB207E1F75C
S11300A010E0C7E3D0E004C02197FE010E947B0466
S11300B0C433D107C9F70E94C3010C9481040C9482
S11300C00000FC011082219AE0E8F0E0808183685E
S11300D080838CE08093810084E690E09093890093
S11300E0809388000895CF93DF93CDB7DEB72C9724
S11300F00FB6F894DEBF0FBECDBF9C019CE0E0E0DC
S1130100F1E0DE01119601900D929A95E1F76630C7
S113011008F065E0F9016083FE013196E60FF11DF8
S1130120E60FF11D8081918190938900809388006E
S11301302C960FB6F894DEBF0FBECDBFDF91CF91E2
S11301400895FC018FEF85838483878386830895D4
S11301508F929F92AF92BF92CF92DF92EF92FF92D3
S11301600F931F93CF93DF9300D000D01F92CDB78E
S1130170DEB77C0114BC82E085BD10926E0083B1B1
S1130180886085B9239A2FEF80E792E02150804060
S11301909040E1F700C0000083B1877F85B9EFE7A5
S11301A0FDEE20E0E150F0402040E1F700C0000007
S11301B083B1886085B923981B99FECF1B9BFECF22
S11301C01B99FECF60E070E0F8941B9BFECFE6B570
S11301D0F0E01B99FECF86B590E078949B0143E054
S11301E0359527954A95E1F7A1E0B0E0AC0FBD1F26
S11301F0A20FB31F4C91440F8E179F0708F49395D9
S11302008E1B9F0BE1E0F0E0EC0FFD1FE20FF31FEC
S11302108236910508F0416040836F5F7F4F6832FA
S1130220710591F61B9BFECFC980F701C6821A8126
S11302301783DB80D4820C810583602F6F7770E095
S113024080E090E00E94EF0320E030E040E251E4DF
S11302500E947B034B015C016D2D70E080E090E017
S11302600E94ED039B01AC01C501B4010E940F0380
S113027007FD06C0F701608371838283938308C0FE
S1130280DC01CB01B058F70180839183A283B3834F
S1130290212F30E02C0D311D2D0D311D200F311D6E
S11302A04D8150E081E090E02417350711F480E09F
S11302B090E00F900F900F900F900F90DF91CF91DF
S11302C01F910F91FF90EF90DF90CF90BF90AF9070
S11302D09F908F900895FC0184810895CF93DF93BC
S11302E0EC018CE091E00E94F101892B81F586E11B
S11302F091E00E94A800892B41F586E191E00E94DB
S11303006B01803210F085E026C086E191E00E9406
S11303106B018D3110F084E01EC086E191E00E94F3
S11303206B018A3110F083E016C086E191E00E94EF
S11303306B01873110F082E00EC086E191E00E94EB
S11303406B01863148F081E006C0188205C08CE05C
S113035091E00E94F1018883688185E191E0DF9159
S1130360CF910C94730086E191E00E94A10085E195
S113037091E00E9461008CE091E00C94DF018EE139
S113038091E00C94F402CF93DF9300D01F92CDB789
S1130390DEB7CE0101960E94B302CE0103960E94FD
S11303A06E01CE0101960E94B6022FEF81EE94E019
S11303B0215080409040E1F700C00000EECFCF9381
S11303C0DF93EC010E94600289E090E09D838C83BE
S11303D01F821E821B821A8281E08887DF91CF915F
S11303E00895CF93DF93EC010E946C022A813B8134
S11303F0820F931F9B838A832C813D8128173907A1
S113040044F48885813069F48E819F819B838A833B
S11304100DC04E815F818417950744F4888581302F
S113042019F43B832A8302C05B834A838A819B81BC
S1130430DF91CF9108954C9A549821E030E0FC016B
S113044031832083089529B120713FEF89EF90E033
S1130450315080409040E1F700C0000089B1422F44
S113046050E0807190E04817590799F080E12827FF
S11304703FEF89EF90E0315080409040E1F700C0B9
S1130480000089B1422F50E0807190E0481759076D
S113049031F481E090E0203121F080E008958FEF85
S11304A09FEF08954C9BFECF2FEF89EF90E02150F2
S11304B080409040E1F700C000004C9BF3CF0895CA
S11304C08BB18C608BB98AB1837F8AB982E08093C7
S11304D06900E89A789408952091A2013091A301CB
S11304E0FC0131832083F8941092A3011092A2019D
S11304F078948081918108951F920F920FB60F9284
S113050011248F939F9381E090E09093A3018093B3
S1130510A2014B9906C08FEF9FEF9093A3018093A4
S1130520A2019F918F910F900FBE0F901F9018956D
S1130530229AE0E8F0E08081836280838CE08093FB
S113054081008FE590E090938B0080938A0008955A
S1130550633808F062E870E0625E7F4F70938B004E
S113056060938A000895FC0110820895CF93DF936D
S1130570EC0185EA91E00E942302892B59F485EA73
S113058091E00E94520288818F5F843011F0888349
S113059001C018828881811102C08AE515C08130AA
S11305A021F48981883770F00BC0823021F489816D
S11305B0863930F407C0833041F48981843B10F0DC
S11305C09FEF01C091E0890F8983698184EA91E0FA
S11305D0DF91CF910C94A80285EA91E00E941B025E
S11305E084EA91E00C949802FC0184B1816184B99D
S11305F08FE3808386E081838BE582838FE483832A
S113060086E684838DE685838DE7868387E087830A
S11306108FE780878FE68187128608955058BB271D
S1130620AA270E9426030C9441040E94330438F044
S11306300E943A0420F039F49F3F19F426F40C94F4
S113064030040EF4E095E7FB0C942A04E92F0E9491
S1130650520458F3BA17620773078407950720F00A
S113066079F4A6F50C9474040EF4E0950B2EBA2FCD
S1130670A02D0B01B90190010C01CA01A0011124A4
S1130680FF27591B99F0593F50F4503E68F11A1650
S1130690F040A22F232F342F4427585FF3CF4695E1
S11306A037952795A795F0405395C9F77EF41F1603
S11306B0BA0B620B730B840BBAF09150A1F0FF0FCD
S11306C0BB1F661F771F881FC2F70EC0BA0F621FB9
S11306D0731F841F48F4879577956795B795F795A9
S11306E09E3F08F0B0CF9395880F08F09927EE0F3E
S11306F09795879508950E948F030C9441040E9456
S11307003A0458F00E94330440F029F45F3F29F082
S11307100C942A0451110C9475040C9430040E9416
S1130720520468F39923B1F3552391F3951B550BA8
S1130730BB27AA2762177307840738F09F5F5F4FB0
S1130740220F331F441FAA1FA9F335D00E2E3AF0EF
S1130750E0E832D091505040E695001CCAF72BD007
S1130760FE2F29D0660F771F881FBB1F2617370758
S11307704807AB07B0E809F0BB0B802DBF01FF278A
S113078093585F4F3AF09E3F510578F00C942A0439
S11307900C9475045F3FE4F3983ED4F38695779503
S11307A06795B795F7959F5FC9F7880F911D969543
S11307B0879597F90895E1E0660F771F881FBB1F9F
S11307C0621773078407BA0720F0621B730B840B4C
S11307D0BA0BEE1F88F7E0950895E89409C097FBDB
S11307E03EF490958095709561957F4F8F4F9F4F04
S11307F09923A9F0F92F96E9BB279395F695879548
S113080077956795B795F111F8CFFAF4BB0F11F40A
S113081060FF1BC06F5F7F4F8F4F9F4F16C08823B1
S113082011F096E911C0772321F09EE8872F762FE7
S113083005C0662371F096E8862F70E060E02AF028
S11308409A95660F771F881FDAF7880F9695879514
S113085097F9089597F99F6780E870E060E008953C
S11308609FEF80EC089500240A94161617061806C4
S11308700906089500240A941216130614060506A0
S11308800895092E0394000C11F4882352F0BB0F31
S113089040F4BF2B11F460FF04C06F5F7F4F8F4F94
S11308A09F4F089557FD9058440F551F59F05F3FCF
S11308B071F04795880F97FB991F61F09F3F79F07E
S11308C087950895121613061406551FF2CF469500
S11308D0F1DF08C0161617061806991FF1CF869582
S11308E07105610508940895E894BB276627772766
S11308F0CB0197F90895EE0FFF1F0590F491E02DB9
S10909000994F894FFCFF6
S10F090600006400B40004015401A401CA
S9030000FC
